:020000040800F2
:10000000901000204D1A0008A9050008AB05000853
:10001000AF050008B3050008B705000800000000A0
:10002000000000000000000000000000BB05000808
:10003000BD05000800000000BF050008C10500085C
:10004000671A0008671A0008671A0008671A00088C
:10005000671A0008671A0008671A0008671A00087C
:10006000671A0008671A0008671A0008671A00086C
:10007000671A0008671A0008671A0008671A00085C
:10008000671A0008671A0008671A0008671A00084C
:10009000671A0008671A0008671A0008671A00083C
:1000A000671A0008671A0008671A0008671A00082C
:1000B000671A00083D0C0008671A0008671A000854
:1000C000671A0008671A0008671A0008671A00080C
:1000D000671A0008C1190008671A0008C90C00084F
:1000E000671A0008671A0008671A000800F002F88B
:1000F00000F090F80AA090E8000C82448344AAF132
:100100000107DA4501D100F085F8AFF2090EBAE82F
:100110000F0013F0010F18BFFB1A43F0010318473B
:10012000D4680000F4680000103A24BF78C878C191
:10013000FAD8520724BF30C830C144BF04680C60ED
:10014000704700000023002400250026103A28BF35
:1001500078C1FBD8520728BF30C148BF0B60704739
:100160006E2903F04983702903F0B384662904F0F3
:10017000CB84652904F0C884672904F0C58461290B
:10018000AFF3008003681B0A28BF41F08001692992
:1001900003F0F682642903F0F382752903F0F082FC
:1001A0006F2903F04184782903F07F84E92903F063
:1001B000DB83E42903F0D883F52903F0D583EF2905
:1001C00003F03E84F82903F07E840368DB0928BF2E
:1001D00041F08001632903F04A83732903F04F83C0
:1001E000E32903F03687F32903F03B8700207047AB
:1001F0001FB503F08BFF04000020002104F06EFC0B
:10020000401C60600020002104F052FCE0601FBD33
:1002100010B510BD03F04DFF1146FFF7E9FF00F0E8
:1002200009F804F025F803B4FFF7F2FF03BC01F06E
:100230006DFB000008B501F0FFFA4FF4A06002F07A
:10024000A9F94FF4E13000F06EFD01F0BEF9002095
:1002500000F0D5FE002000F0E0FE632140F25720C0
:1002600001F056FA00F0ECFB3221C1A000F03DFC99
:1002700001201023C1A219460090002001F0C4F80B
:1002800000F0FDFE4FF47A7001F013FB6EE1BF4801
:10029000008800F4004000287DD0002446E1BC48DE
:1002A00010F8140046280CD1012000EB4400B84996
:1002B000085C202805D1012140F29B2001F03FFA83
:1002C00032E1B34810F8140046280CD1012000EBAD
:1002D0004400AF49085C272805D1002140F29B204B
:1002E00001F02DFA20E1AA4810F8140046280CD19C
:1002F000012000EB4400A649085C322805D100210A
:1003000040F2355001F01BFA0EE1A14810F814003C
:1003100042280CD1012000EB44009D49085C2028B4
:1003200005D1012140F29B2001F01DFAFCE0984824
:1003300010F8140042280CD1012000EB440094492D
:10034000085C272805D1002140F29B2001F00BFA20
:10035000EAE08F4810F8140042280CD1012000EB8D
:1003600044008B49085C322805D1002140F2355009
:1003700001F0F9F9D8E0864810F8140055280ED19C
:10038000012000EB44008249085C202807D10121AC
:1003900040F29B2000E0E6E001F0F8F9C4E07C4880
:1003A00010F8140055280CD1012000EB44007849C6
:1003B000085C272805D1002140F29B2001F0E6F9D6
:1003C000B2E0734810F8140055280CD1012000EB5E
:1003D00044006F49085C322805D1002140F23550B5
:1003E00001F0D4F9A0E06A4810F8140044280CD1B8
:1003F000012000EB44006649085C202805D101215A
:1004000040F29B2001F0D4F98EE0614810F814000E
:1004100044280CD1012000EB44005D49085C2728EA
:1004200005D1002140F29B2001F0C2F97CE0584840
:1004300010F8140044280CD1012000EB440054496A
:10044000085C322805D1002140F2355001F0B0F9A6
:100450006AE04F4810F814004C280CD1012000EB42
:1004600044004B49085C202805D1012140F29B2023
:1004700001F0B1F958E0464810F814004C280CD1AE
:10048000012000EB44004249085C272805D10021E7
:1004900040F29B2001F09FF946E03D4810F814001F
:1004A0004C280CD1012000EB44003949085C32286B
:1004B00005D1002140F2355001F08DF934E0344887
:1004C00010F8140052280CD1012000EB44003049F0
:1004D000085C202805D1012140F29B2001F08EF913
:1004E00022E02B4810F8140052280CD1012000EB18
:1004F00044002749085C272805D1002140F29B20B1
:1005000001F07CF910E0224810F8140052280BD1B9
:10051000012000EB44001E49085C322804D1002170
:1005200040F2355001F06AF9601CC4B2184803F07B
:10053000CBF8B4EB500FFFF4B2AE00F0D2FD0120C7
:10054000102314A219460090002000F05DFF00F077
:1005500096FD322112A000F0C8FA00F0ADFA00209A
:100560000A49088000BF0A2001F0A3F98FE60000C5
:1005700053756363657373210000000068656C6CDC
:100580006F20776F726C642100000000140000205F
:100590003800002047616D65204F766572210000AC
:1005A000456E642E2E2E0000704700BFFEE700BF90
:1005B000FEE700BFFEE700BFFEE7704770477047E9
:1005C000704700000CB50020019000906C48006856
:1005D00040F480306A49086000BF6948006800F450
:1005E000003000900198401C0190009818B90198C3
:1005F000B0F5A06FF1D16248006800F4003010B18E
:100600000120009001E0002000900098012843D1D3
:100610005C48006840F010005A49086008460068CD
:1006200020F0030008600846006840F002000860FF
:100630005348406852494860084640684860084648
:10064000406840F4806048600846406820F47C10B0
:1006500048600846406840F4E81048600846006872
:1006600040F08070086000BF4548006800F00070EE
:100670000028F9D04248406820F003004049486013
:100680000846406840F00200486000BF3C484068AF
:1006900000F00C000828F9D10CBD10B5FFF792FF4F
:1006A00010BD10B53648006840F0010034490860BC
:1006B00008464068344908403149486008460068A7
:1006C000324908402E4908600846006820F480201E
:1006D00008600846406820F4FE0048604FF41F00A0
:1006E0008860FFF7DAFF4FF000602949086010BD0D
:1006F00010B5002100200022214B5B6803F00C01A3
:1007000021B1042906D0082928D107E0214B224C29
:10071000236027E01F4B204C236023E0184B5B68CD
:1007200003F47010164B5B6803F48032022303EB72
:10073000904022B9194B4343174C23600DE0104BF6
:100740005B6803F4003323B1144B4343124C236022
:1007500003E0104B4343104C236003E00D4B0E4C61
:10076000236000BF00BF064B5B68C3F303130C4C50
:10077000E15C094B1B68CB40074C236010BD0000B7
:1007800000100240002002400000FFF8FFFFF6FECC
:1007900008ED00E000127A000000002000093D0092
:1007A0000400002030B589B005460C4601210846FA
:1007B00001F095FC0121084601F084FC0121042090
:1007C00001F080FC0920ADF8200018208DF82300EE
:1007D00003208DF8220008A9734801F0B7F9ADF89D
:1007E0001850ADF814400020ADF81A00ADF816000E
:1007F00005A94FF0804002F00FF87020ADF804001A
:100800000120ADF806000020ADF80C0001A94FF062
:10081000804002F03EF801A94FF0804002F013F949
:100820000821C80602F084FC0821C80602F09FFCDB
:100830000121880702F04CFC0121880702F054FBDB
:100840000121880702F044FB09B030BD30B589B002
:1008500005460C460121022001F041FC0121084619
:1008600001F030FC01210C2001F02CFC8020ADF8BF
:10087000200018208DF8230003208DF8220008A9FD
:10088000494801F063F90120ADF8200018208DF8E7
:10089000230003208DF8220008A9444801F056F9EE
:1008A000ADF81850ADF814400020ADF81A00ADF8BE
:1008B000160005A93E4801F0AFFF7020ADF8040016
:1008C0000120ADF806000020ADF80C0001A9384861
:1008D00002F021F801A9364802F06AF808213448EC
:1008E00002F02FFC0821324802F038FC0121304888
:1008F00002F0EEFB01212E4802F0F6FA01212C480D
:1009000002F0E6FA09B030BD30B589B005460C46B4
:100910000121042001F0E3FB0121084601F0D2FB94
:100920000121082001F0CEFB4FF44070ADF820000B
:1009300018208DF8230003208DF8220008A91B48F9
:1009400001F004F9ADF81850ADF814400020ADF8EE
:100950001A00ADF8160005A9164801F05DFF7020D9
:10096000ADF804000120ADF806000020ADF80A0043
:10097000ADF80C0001A90F4802F01AF801A90D48C2
:1009800002F061F808210B4802F0E8FB0821094851
:1009900002F0EDFB0121074802F09AFB0121054816
:1009A00002F096FA09B030BD00080140000C014089
:1009B000000400400008004070B50446002561486E
:1009C000008800F4004058B100205E490988C1F356
:1009D0000E015D4A50542146104602F063FE054662
:1009E000284670BD2DE9F04106460D461446002705
:1009F000002054490880314654A000F0F4F9E5B1D4
:100A0000DCB113E00A2000F054FF4E48008800F4E7
:100A1000004058B12846FFF7CFFF20B129464DA02E
:100A200002F046FD06E0002046490880601E80B2C4
:100A30000400E7D100BF04B901273846BDE8F081C2
:100A400010B5322246A147A0FFF7CCFF142248A1DF
:100A500049A0FFF7C7FF4FF47A7000F02AFF4FF468
:100A60007A7000F026FF4FF47A7000F022FF4FF406
:100A70007A7000F01EFF00BF4FF4167240A143A031
:100A8000FFF7B0FF0028F7D1142235A148A0FFF7E7
:100A9000A9FF00BFC82249A14AA0FFF7A3FF002871
:100AA000F8D1C8222EA151A0FFF79CFF32222CA121
:100AB00052A0FFF797FF10BD10B5012452A000F01F
:100AC00092F94FF47A7000F0F4FE142224A14FA0A2
:100AD000FFF788FF04461CB14DA002F0E9FC02E0DC
:100AE00050A002F0E5FC204610BD7CB505460C4642
:100AF0006E4600201349088029464FA000F073F984
:100B0000ECB117E00A2000F0D4FE0E48008800F493
:100B1000004078B100200B490988C1F30E010A4A50
:100B20005054164631460BA002F0C2FC0020054985
:100B3000088003E0601E80B20400E3D100BF3046AD
:100B40007CBD0000140000203800002025730D0A31
:100B50000000000061636B3A25730D0A000000007D
:100B60004F4B000041542B43574D4F44453D3100FE
:100B7000726561647900000041542B5253540000A7
:100B80005749464920474F542049500041542B4370
:100B9000574A41503D22464153545F34363838431A
:100BA00030222C2231363637363830306122000080
:100BB00041542B4349504D55583D3000434F4E4E04
:100BC0004543540041542B43495053544152543DE2
:100BD00022544350222C223139322E3136382E31D4
:100BE0002E313035222C38303930000041542B431F
:100BF00049504D4F44453D310000000041542B43C6
:100C0000495053454E4400002B2B2B00415400000B
:100C1000717569745F7472616E73206661696C6569
:100C200064210000717569745F7472616E73207362
:100C300075636365737321002573000010B501218E
:100C40001F4802F00EFC68B11E48008840F40040C6
:100C50001C49088001211A4802F014FC00211848A0
:100C600002F036F910BD7FB505460C460121022081
:100C700001F035FAADF80450ADF800400020ADF8B1
:100C80000600ADF8020069460D4801F0C5FD0122DD
:100C900011460B4802F037F90121094802F018F912
:100CA0001D208DF80C0000208DF80D0002208DF81D
:100CB0000E0001208DF80F0003A801F070FC7FBD2D
:100CC000000400401400002010B540F2255158489F
:100CD00001F01CFCF8B1564801F098FBC4B255482D
:100CE000008800F40040B0B952480088B0F5167F83
:100CF00012DA0021504802F07FFB4E48008818B9F4
:100D000001214D4802F0E4F84A490888411C494A4B
:100D100011804A490C5405E04648008840F40040E0
:100D20004449088010BD10B586B004460121082052
:100D300001F0C8F90121880401F0D1F93C4801F023
:100D400025FA4FF48060ADF8100003208DF81200F2
:100D500018208DF8130004A9394800F0F7FE4FF46D
:100D60000060ADF8100004208DF8130004A9344889
:100D700000F0ECFE00940020ADF80400ADF8060091
:100D8000ADF80800ADF80C000C20ADF80A0069467B
:100D9000274801F03EFA0121254801F0C6FA012258
:100DA00040F22551224801F0CCFA27208DF814009A
:100DB00002208DF8150003208DF8160001208DF813
:100DC000170005A801F0EBFB41F61F4140F2E730A8
:100DD000FFF749FF0020174908800021164802F05C
:100DE00077F806B010BD0FB438B505A800901548C7
:100DF000009A049902F04AFB00200090114802F08A
:100E000063FC85B200240DE000BF4021084801F0DA
:100E100067FB0028F9D00B48015D054801F0F2FAA4
:100E2000601C84B2AC42EFDB38BC5DF814FB000000
:100E3000004800401400002000040040380000205A
:100E4000000C01409002002008B50121042001F0AF
:100E500039F90121082001F035F90121102001F0B4
:100E600031F941F23200ADF8000010208DF8030096
:100E700003208DF802006946154800F067FE41F234
:100E80003201134800F00FFF1020ADF800008DF87C
:100E9000030003208DF8020069460E4800F056FE5C
:100EA00010210C4800F0FFFE4FF40040ADF80000A8
:100EB00010208DF8030003208DF8020069460648D3
:100EC00000F044FE4FF40041034800F0ECFE08BD82
:100ED000000C01400008014000100140032000BF49
:100EE0000100A0F10102D0B2FAD1704710B54FF461
:100EF0000041F84800F0D9FE4FF48041F54800F079
:100F0000D2FEFFF7EBFF4FF40041F24800F0CBFEBA
:100F100010BD10B54FF40041EE4800F0C4FEFFF7DD
:100F2000DDFF4FF48041EB4800F0BDFEFFF7D6FF38
:100F30004FF48041E74800F0B8FEFFF7CFFF10BD47
:100F400070B5044600251FE004F0800028B14FF47E
:100F50000041E04800F0A7FE04E04FF40041DD4806
:100F600000F0A3FEFFF7BAFF4FF48041D94800F02C
:100F70009AFEFFF7B3FF4FF48041D64800F095FE8C
:100F80006006040E681CC5B2082DDDDB70BD10B50F
:100F90004FF40041CF4800F086FE4FF48041CD4829
:100FA00000F081FEFFF79AFF4FF40041C94800F0BE
:100FB0007CFEFFF793FF4FF48041C64800F075FEBA
:100FC000FFF78CFF10BD70B505460C46FFF7DFFF3D
:100FD0007820FFF7B5FFFFF79CFF1CB14020FFF71B
:100FE000AFFF02E00020FFF7ABFFFFF792FF2846BC
:100FF000FFF7A6FFFFF78DFFFFF778FF70BD10B575
:1010000004461CB90021A620FFF7DDFF012C03D107
:101010000021A720FFF7D7FF10BD10B504463CB94B
:101020000021C820FFF7CFFF0021A120FFF7CBFF51
:10103000012C07D10021C020FFF7C5FF0021A0200F
:10104000FFF7C1FF10BD10B500218D20FFF7BBFFDA
:1010500000211420FFF7B7FF0021AF20FFF7B3FFF7
:1010600010BD10B500218D20FFF7ADFF002110202D
:10107000FFF7A9FF0021AE20FFF7A5FF10BD70B557
:1010800000242BE004F1B001C8B20021FFF79BFF60
:1010900000210846FFF797FF00211020FFF793FF7C
:1010A000FFF775FF7820FFF74BFFFFF732FF402077
:1010B000FFF746FFFFF72DFF002509E0864901EB0A
:1010C000C501085DFFF73CFFFFF723FF681CC5B2B1
:1010D000802DF3DBFFF70AFF601CC4B2082CD1DBC4
:1010E00070BD70B500240CE0002506E000207A49B0
:1010F00001EBC5010855681CC5B2802DF6DB601CEC
:10110000C4B2082CF0DBFFF7BAFF70BDF0B514468F
:101110000B46CF1701EB5777C7F3C702CF1701EB89
:101120005777FF10A1EBC707FEB20123B340DDB232
:101130004CB1694B03EBC0039B5C2B43664F07EB41
:10114000C007BB541AE0644B03EBC0039B5CDB435A
:10115000614F07EBC007BB545F4B03EBC0039B5CC5
:101160002B435D4F07EBC007BB545B4B03EBC00346
:101170009B5CDB43584F07EBC007BB54F0BD2DE928
:10118000FF4F84B081468A4600200290834606982D
:10119000A0EB09040798A0EB0A06CDF80490CDF85F
:1011A00000A0002C01DD012705E00CB9002702E0BA
:1011B0004FF0FF376442002E02DD4FF0010806E0D9
:1011C00016B94FF0000802E04FF0FF386642B44213
:1011D00001DD254600E03546002003901EE0009A20
:1011E000D1B2019AD0B2119AFFF790FF0298204431
:1011F0000290B3440298A84205DD0298401B029079
:10120000019838440190AB4504DDABEB050B009829
:10121000404400900398401C80B20390691C0398DE
:101220008842DCDB08B0BDE8F08F2DE9F0430646CC
:101230000F4690460025444643E03A1BD1B272194E
:10124000D0B20122FFF762FF3A1BD1B2721BD0B2BB
:101250000122FFF75BFF3A19D1B2721BD0B2012213
:10126000FFF754FF3A19D1B27219D0B20122FFF739
:101270004DFF7A19D1B23219D0B20122FFF746FFE1
:101280007A1BD1B23219D0B20122FFF73FFF7A1B8D
:10129000D1B2321BD0B20122FFF738FF7A19D1B296
:1012A000321BD0B20122FFF731FF6D1C05FB05F0A8
:1012B00004FB040008FB1809B9F1000F01DD641EEE
:1012C0006D1E6000604308FB08F18842B5DABDE896
:1012D000F0830000000C0140E80400202DE9FE4FDF
:1012E0000746884692461C460197CDF80080082C98
:1012F00002D14FF006091FE02046E31704EB5373B9
:10130000DB1021464FEAE47C04EB5C7C4FEAEC0CFA
:10131000A4EBCC0CBCF1000F02D04FF0010C01E0AB
:101320004FF0000C6344224604EBD27C4FEA6C0C75
:1013300003FB0CF303F0FF09AAF12000C6B200255D
:101340005EE0082C07D106EB4600EB4901EB4000BC
:1013500010F805B01DE00C2C07D106EB4600E7495C
:1013600001EB800010F805B013E0102C05D1E44823
:1013700000EB061010F805B00BE0182C07D106EBB7
:10138000C600E04901EB800010F805B001E0BDE8BF
:10139000FE8F002002901CE00BF0010028B14146B6
:1013A00038460C9AFFF7B2FE09E00C9808B9012004
:1013B00000E00020024641463846FFF7A7FE4FEA0C
:1013C0006B0B08F1010000F0FF080298401CC0B24E
:1013D000029002980828DFDB781CC7B2082C0BD0DB
:1013E00004EBD4714A100199791A8A4204D1019F01
:1013F00000980830C0B20090DDF80080681CC5B2CB
:101400004D459EDB00BFC2E72DE9F84106460F4679
:1014100014461D46DDF81C8013E0CDF800802278CC
:101420002B4639463046FFF759FF082D02D1B01D33
:10143000C6B205E0284605EBD07106EB6101CEB2DD
:10144000641C2078202802DB20787E28E5DDBDE8BA
:10145000F88110B50246012000E050430B00A1F1D5
:101460000104E1B2F9D110BD2DE9FF4F82B006466B
:1014700091461F46DDE90F4A4FF0000B082C01D1C1
:101480004FF0020B002530E0781B401EC1B20A204D
:10149000FFF7DFFFB9FBF0F00A21B0FBF1F201FB2F
:1014A0001208B8F1000F0ED104EBD4710BEB6101FF
:1014B00001FB0561C8B223463022CDE900A403999F
:1014C000FFF70CFF0FE004EBD4710BEB610101FBA4
:1014D0000561C8B208F13001CAB22346CDE900A4C3
:1014E0000399FFF7FBFE681CC5B2BD42CCDB06B01A
:1014F000BDE8F08F2DE9FF4F05460E4617461C4606
:10150000DDF838904FF0000A0095B3462046E21708
:1015100004EB5272D2102146E31704EB5373DB1035
:10152000A4EBC3030BB1012300E000231A44D4B29F
:101530004FF0000845E0002003903BE00D9810F8C4
:101540000A0002900AF101001FFA80FA00200190BF
:101550001DE0029800F0010028B14A4631462846B5
:10156000FFF7D4FD0AE0B9F1000F01D1012000E03E
:101570000020024631462846FFF7C8FD0298401079
:101580000290701CC6B20198401CC0B20190019834
:101590000828DEDB681CC5B20098281AB84204D1BE
:1015A000009D0BF1080000F0FF0B5E460398401C05
:1015B000C0B203900398B842C0DB08F1010000F00C
:1015C000FF08A045B7DBBDE8FF8F08B50121082063
:1015D00000F078FD4FF44040ADF8000014208DF885
:1015E000030003208DF802006946474800F0AEFA78
:1015F0004FF44041444800F056FB1021434800F0AE
:1016000054FBC82000F055F91021404800F04BFB76
:101610000021AE20FFF7D7FC00210846FFF7D3FCDE
:1016200000211020FFF7CFFC00214020FFF7CBFC6A
:1016300000218120FFF7C7FC0021CF20FFF7C3FC6A
:101640000021A120FFF7BFFC0021C820FFF7BBFC51
:101650000021A620FFF7B7FC0021A820FFF7B3FC6C
:1016600000213F20FFF7AFFC0021D320FFF7ABFCA8
:1016700000210846FFF7A7FC0021D520FFF7A3FCB7
:1016800000218020FFF79FFC0021D920FFF79BFC61
:101690000021F120FFF797FC0021DA20FFF793FCEF
:1016A00000211220FFF78FFC0021DB20FFF78BFCCD
:1016B00000214020FFF787FC00212020FFF783FC5A
:1016C00000210220FFF77FFC00218D20FFF77BFC2B
:1016D00000211420FFF777FC0021A420FFF773FC02
:1016E0000021A620FFF76FFCFFF7FBFC0021AF20D5
:1016F000FFF769FC08BD00000C4B0008344D0008E2
:10170000A851000898570008000C0140001401403F
:1017100070B504460D4600F08FF8FFF795FB632186
:1017200040F25720FFF73EF8632140F25720FFF7C1
:101730008DF8632140F25720FFF7E6F870BD70B5D1
:1017400005460C46374804604FF496714FF08040D0
:1017500001F056FE284600F0ACF800214FF0804022
:1017600001F04EFE70BD70B505460C462E48046073
:101770004FF49671800601F049FE284600F099F872
:1017800000214FF0804001F041FE70BD70B505466C
:101790000C46264804604FF49671254801F032FE4D
:1017A000284600F086F80021214801F02BFE70BD8C
:1017B00070B505460C461D482C3004604FF49671F8
:1017C0001B4801F021FE284600F073F8002118485C
:1017D00001F01AFE70BD70B505460C461348103076
:1017E00004604FF49671134801F00EFE284600F095
:1017F00060F800210F4801F007FE70BD70B5054686
:101800000C460A480C3004604FF49671094801F008
:10181000FDFD284600F04DF80021064801F0F6FDD8
:1018200070BD0000BC01224290012142848121420E
:10183000000400400008004010B56FF0040000F004
:10184000F8FE2E4800682E49B0FBF1F02D490870D3
:101850000846007800EB4001C1EBC0104FF6FF7165
:1018600001EAC0002849088010BD0146254A1278C7
:101870004A434FF0E0235A6100229A611A461269E6
:1018800042F001021A6100BF4FF0E022106900F03F
:1018900001021AB100F48032002AF5D04FF0E022A4
:1018A000126922F001024FF0E0231A6100229A61CE
:1018B00070470146144A12884A434FF0E0235A61A8
:1018C00000229A611A46126942F001021A6100BFB1
:1018D0004FF0E022106900F001021AB100F48032EA
:1018E000002AF5D04FF0E022126922F001024FF0F9
:1018F000E0231A6100229A61704700000000002076
:1019000000127A00160000201800002000BF704767
:1019100000BF4A4A128802F04002002AF9D0C2B23F
:10192000464B1B1D1A80704710B586B00446012136
:1019300044F2040000F0C6FB4FF40070ADF8140050
:1019400003208DF8160018208DF8170005A93C48D3
:1019500000F0FCF84FF48060ADF8140004208DF81E
:10196000170005A9364800F0F1F825208DF8000091
:1019700003208DF801008DF8020001208DF803008E
:10198000684600F00CFE01940020ADF80800ADF8A8
:101990000A00ADF80C00ADF810000C20ADF80E00F8
:1019A00001A9264800F035FC012240F225512348C8
:1019B00000F0C7FC0121214800F0B7FC06B010BDC3
:1019C00010B540F225511D4800F0A0FD10B31B4892
:1019D00000F01CFDC4B21B48008800F40040C8B9E8
:1019E0001848008800F4804060B10A2C03D0002021
:1019F0001449088020E01348008840F40040114951
:101A0000088019E00D2C06D10E48008840F4804073
:101A10000C49088010E00B480088C0F30D000A490B
:101A20000C5408480088401C064908800846008875
:101A3000C72801DD0020088010BD000000380140EB
:101A40000008014020000020680900200948804764
:101A500009480047FEE7FEE7FEE7FEE7FEE7FEE790
:101A6000FEE7FEE7FEE7FEE704480549054A064BA8
:101A700070470000A3060008ED000008900A00204F
:101A800090100020900C0020900C002010B504460F
:101A9000CC48844208D10121042000F02DFB002114
:101AA000042000F029FB46E0C748844208D1012108
:101AB000082000F021FB0021082000F01DFB3AE087
:101AC000C248844208D10121102000F015FB0021FA
:101AD000102000F011FB2EE0BD48844208D1012106
:101AE000202000F009FB0021202000F005FB22E06F
:101AF000B848844208D10121402000F0FDFA0021BD
:101B0000402000F0F9FA16E0B348844208D10121E0
:101B1000802000F0F1FA0021802000F0EDFA0AE0C8
:101B2000AE48844207D10121801500F0E5FA00217A
:101B3000A01500F0E1FA10BD10B50121084600F033
:101B4000DBFA0021012000F0D7FA10BD2DE9F041A9
:101B5000024600250026002000230024002791F8DB
:101B600003C00CF00F0591F803C00CF0100CBCF191
:101B7000000F03D091F802C04CEA050591F800C0AF
:101B8000BCF1000F31D0146800202BE04FF0010CA5
:101B90000CFA00F3B1F800C00CEA03069E4220D113
:101BA00083004FF00F0C0CFA03F7BC4305FA03FC5B
:101BB0004CEA040491F803C0BCF1280F06D14FF0A1
:101BC000010C0CFA00FCC2F814C00AE091F803C042
:101BD000BCF1480F05D14FF0010C0CFA00FCC2F823
:101BE00010C0401C0828D1D31460B1F800C0BCF16B
:101BF000FF0F34DD546800202EE000F1080C4FF098
:101C0000010808FA0CF3B1F800C00CEA03069E4282
:101C100021D183004FF00F0C0CFA03F7BC4305FAF7
:101C200003FC4CEA040491F803C0BCF1280F05D171
:101C300000F1080C08FA0CF8C2F8148091F803C0FF
:101C4000BCF1480F07D100F1080C4FF0010808FA69
:101C50000CF8C2F81080401C0828CED35460BDE8B0
:101C6000F0814FF6FF710180022181700421C17063
:101C700070470246002093680B400BB1012000E042
:101C8000002070470146886880B2704702460020F5
:101C9000D3680B400BB1012000E0002070470146E3
:101CA000C86880B2704701617047416170470AB1EE
:101CB000016100E041617047C16070474FF48032BC
:101CC0000A4382618161826182698269704702464A
:101CD0000020434B18684FF68073184040EA02100A
:101CE00008433F4B186070473E49C8617047F0B5E4
:101CF0000A46002300240021002500F00046B6F12A
:101D0000004F02D1364EF16901E0354E7168C0F3E3
:101D1000034583B200F44016B6F5401F08D121F008
:101D200070612F4E766826F070662D4F7E6012E04F
:101D300000F48016B6F5801F06D1032606FA05F4D6
:101D4000A14341F0706106E0460D360103FA06F644
:101D5000B14341F0706122B1460D360103FA06F637
:101D6000314300F00046B6F1004F02D11C4EF16144
:101D700001E01B4E7160F0BD30B500228B071C0FD7
:101D80000F2303FA04F2164B08338C1053F8243057
:101D90009343134C08348D1044F8253023468C109F
:101DA00053F824308C07240F00FA04F423430C4C1E
:101DB00008348D1044F8253030BD0A49DC31086004
:101DC0007047000000080140000C01400010014075
:101DD0000014014000180140001C01400020014097
:101DE0000000014000002042DF48006840F0010090
:101DF000DD49086008464068DC490840DA49486027
:101E000008460068DA490840D74908600846006873
:101E100020F4802008600846406820F4FE004860F6
:101E20004FF41F0088607047CF49096821F4803162
:101E3000CD4A11601146096821F480211160B0F586
:101E4000803F03D0B0F5802F0ED106E0C649096867
:101E500041F48031C44A116007E0C349096841F484
:101E6000A021C14A116000E000BF00BF704710B55B
:101E700001460022002300204A11012A02D1BA4C57
:101E8000236806E0022A02D1B74C236A01E0B64C6F
:101E9000636A01F01F02012494401C400CB1012030
:101EA00000E0002010BD38B500200090002400257F
:101EB00000BF3120FFF7DBFF05460098401C009073
:101EC0000098B0F5A06F01D0002DF2D03120FFF7BF
:101ED000CEFF08B1012400E00024204638BD0146B1
:101EE0000020A14A106820F0F80040EAC10010600C
:101EF0007047A04908607047024600209A4B586816
:101F000020F47C1042EA01031843974B5860704755
:101F100098490866704701460020934A506820F0AF
:101F200003000843506070478F48406800F00C0081
:101F30007047014600208C4A506820F0F0000843AA
:101F40005060704701460020874A506820F4E060E6
:101F500008435060704701460020834A506820F4CF
:101F6000605040EAC1005060704729B17E4A527A01
:101F700002437D4B5A7204E07B4A527A82437A4B89
:101F80005A7270477B49D83108607047014600207B
:101F9000754A506820F44040084350607047002163
:101FA000714A20321170704A82F82010012802D044
:101FB00004280AD104E001216B4A2032117005E0A7
:101FC0000521694A2032117000E000BF00BF704750
:101FD0006949086070476449096A0143624A1162AD
:101FE0007047654944390860704730B500210022C8
:101FF000002400235C4D6D6805F00C0121B104291B
:1020000005D0082923D105E05C4D056022E05B4D39
:1020100005601FE0544D6D6805F47012524D6D68F7
:1020200005F48034022505EB92421CB9544D55430A
:1020300005600BE04C4D6D6805F400351DB1504D49
:102040005543056002E04D4D5543056002E04B4DA0
:10205000056000BF00BF444D6D6805F0F00109093F
:10206000484D6B5C0568DD4045603F4D6D6805F48B
:10207000E061090A434D6B5C4568DD4085603A4D7F
:102080006D6805F46051C90A3E4D6B5C4568DD40E2
:10209000C560354D6D6805F44041890B3A4D6B5C68
:1020A000C568B5FBF3F5056130BD29B12E4A52690B
:1020B00002432D4B5A6104E02B4A526982432A4B5A
:1020C0005A61704729B1284A92690243264B9A61A6
:1020D00004E0254A92698243234B9A61704729B1F3
:1020E000214AD2690243204BDA6104E01E4AD269D8
:1020F00082431D4BDA61704729B11B4AD268024303
:10210000194BDA6004E0184AD2688243164BDA6051
:10211000704729B1144A12690243134B1A6104E053
:10212000114A12698243104B1A61704712494039B3
:10213000086070470F49C86470470B49C871704701
:102140000948406A40F0807007494862704701467C
:102150000020054A92680A400AB1012000E00020F0
:102160007047014988727047001002400000FFF874
:10217000FFFFF6FE000042428004424200127A0055
:1021800000093D00220000203200002010B5044666
:10219000FB48844209D101218803FFF7ADFF0021EC
:1021A0004FF48040FFF7A8FF32E0F648844209D19F
:1021B00001214804FFF7ADFF00214FF40030FFF785
:1021C000A8FF25E0F048844209D101218804FFF7E7
:1021D000A0FF00214FF48020FFF79BFF18E0EB48A1
:1021E000844209D10121C804FFF793FF00214FF475
:1021F0000020FFF78EFF0BE0E548844208D1012163
:102200000805FFF786FF00214FF48010FFF781FFDC
:1022100010BD2DE9F04786B005460E460024A246C3
:1022200000BFA1460027B08900B100BF2F462C8A0D
:102230004CF6FF700440F08804432C82AC894EF6C3
:10224000F3100440B088318908437189084304437E
:10225000AC81AC8A4FF6FF400440B0890443AC82A5
:1022600001A8FFF7C2FEC648874202D1DDF810A0E0
:1022700001E0DDF80CA0A88900F4004040B10AEBB1
:10228000CA0000EB0A1031684900B0FBF1F807E022
:102290000AEBCA0000EB0A1031688900B0FBF1F8C4
:1022A0006420B8FBF0F004012009642101FB1089CF
:1022B000A88900F4004040B1322000EBC900B0FB17
:1022C000F1F000F00700044308E0322000EB0910B1
:1022D0006421B0FBF1F000F00F0004432C8106B044
:1022E000BDE8F0874FF41651016000218180C18064
:1022F00001810C21418100218181704710B5024686
:102300000020108A4FF2FF0318400B884C882343AB
:102310008C882343CC8823431843108210BD0021AE
:10232000018041808180C180704721B1828942F45F
:102330000052828104E082894DF6FF731A40828147
:102340007047F0B50346002400260025002040F623
:102350006A17B94200D100BF1846C1F3421401F018
:102360001F06012707FA06F5012C01D10C3004E005
:10237000022C01D1103000E014301AB107682F434D
:10238000076002E00768AF430760F0BD1AB1838AB7
:102390000B43838202E0838A8B4383827047028AE5
:1023A0004FF6F0731A400282028A0A430282704793
:1023B00082894FF2FF731A40828182890A438281A7
:1023C000704721B1828942F00202828104E0828951
:1023D0004FF6FD731A4082817047028A4FF6DF7311
:1023E0001A400282028A0A430282704721B1028A9D
:1023F00042F48042028204E0028A4BF6FF731A40E4
:1024000002827047C1F308028280704701468888C3
:10241000C0F308007047818941F001018181704754
:10242000028BD2B20283028B42EA012202837047FE
:10243000028B02F47F420283028B0A4302837047BD
:1024400021B1828A42F02002828204E0828A4FF621
:10245000DF731A408282704721B1828A42F01002F3
:10246000828204E0828A4FF6EF731A4082827047BC
:1024700021B1828A42F00802828204E0828A4FF609
:10248000F7731A408282704721B1828942F4004278
:10249000828103E08289C2F30E028281704721B1FA
:1024A000828A42F40062828204E0828A4FF2FF73E1
:1024B0001A4082827047828A4FF6FB731A408282EA
:1024C000828A0A438282704721B1828A42F00202E4
:1024D000828204E0828A4FF6FD731A40828270473E
:1024E00002460020B1F5007F00D100BF13880B40E9
:1024F0000BB1012000E00020704701F40072B2F53A
:10250000007F00D100BFCA430280704770B5024609
:10251000002400230025002040F66A16B14200D1B5
:1025200000BFC1F3421501F01F03012606FA03F3B1
:10253000012D02D19689334006E0022D02D1168A80
:10254000334001E0968A33400C12012606FA04F467
:102550001688344013B10CB1012000E0002070BD9A
:1025600010B50022002340F66A14A14200D100BF3A
:102570000A1201249440A3B2DC43048010BD000081
:10258000003801400044004000480040004C00403A
:102590000050004031490143314A1160704770B525
:1025A000002100230F22C47804B32D4C246804F4C6
:1025B000E064C4F5E064210AC1F10403CA40447830
:1025C00004FA03F18478144021430901254C06786C
:1025D000A155047804F01F050124AC4005786D1165
:1025E000AD0005F1E025C5F8004109E0047804F0EC
:1025F0001F050124AC401C4D0678761145F8264095
:1026000070BD1A4A0A400243154B1B1F1A607047DF
:1026100039B1134A121D12680243114B1B1D1A6077
:1026200006E00F4A121D126882430D4B1B1D1A60F3
:102630007047042808D14FF0E021096941F00401F6
:102640004FF0E022116107E04FF0E021096921F02D
:1026500004014FF0E0221161704700000000FA050C
:102660000CED00E000E400E080E100E080FFFF1FEF
:1026700010B50446FE48844208D10121C014FFF77A
:102680003BFD0021E014FFF737FDC4E0B4F1804FBB
:1026900008D101210846FFF73CFD00210120FFF78A
:1026A00038FDB8E0F348844208D101210220FFF749
:1026B00030FD00210220FFF72CFDACE0EE48844203
:1026C00008D101210420FFF724FD00210420FFF799
:1026D00020FDA0E0E948844208D101210820FFF74D
:1026E00018FD00210820FFF714FD94E0E44884421F
:1026F00008D101211020FFF70CFD00211020FFF769
:1027000008FD88E0DF48844208D101212020FFF73E
:1027100000FD00212020FFF7FCFC7CE0DA48844229
:1027200008D101214014FFF7E7FC00216014FFF7F6
:10273000E3FC70E0D548844209D10121C804FFF7C9
:10274000DBFC00214FF40020FFF7D6FC63E0D0480B
:10275000844209D101210805FFF7CEFC00214FF486
:102760008010FFF7C9FC56E0CA48844209D1012114
:102770004805FFF7C1FC00214FF40010FFF7BCFC37
:1027800049E0C548844208D101214020FFF7C1FC3F
:1027900000214020FFF7BDFC3DE0C048844208D145
:1027A00001218020FFF7B5FC00218020FFF7B1FC5C
:1027B00031E0BB48844208D101218015FFF7A9FC14
:1027C0000021A015FFF7A5FC25E0B648844209D1F9
:1027D00001210804FFF790FC00214FF48030FFF73F
:1027E0008BFC18E0B048844209D101214804FFF76E
:1027F00083FC00214FF40030FFF77EFC0BE0AB4878
:10280000844208D101218804FFF776FC00214FF4AF
:102810008020FFF771FC10BD00220288944B984283
:102820000ED0994B98420BD0B0F1804F08D0914B0D
:10283000984205D0904B984202D0904B984204D1D8
:102840004FF68F731A404B881A438D4B984207D02E
:102850008C4B984204D04FF6FF431A40CB881A4362
:1028600002808B8883850B880385814B98420BD02F
:10287000854B984208D08B4B984205D08A4B9842A2
:1028800002D08A4B984201D10B7A038601238382BE
:10289000704770B5002400220023058C4FF6FE76A9
:1028A00035400584028C8388048B4FF68F752C404D
:1028B000B51E2C400D882C43751E2A400D892A43D5
:1028C0004D882A436A4DA8420BD06F4DA84208D0CC
:1028D000744DA84205D0744DA84202D0734DA84251
:1028E00013D14FF6F7752A404D892A434FF6FB75F1
:1028F0002A408D882A434FF6FF652B404FF6FF553F
:102900002B408D892B43CD892B4383800483CD8835
:102910008586028470BD70B5002400220023058CDA
:102920004FF6EF7635400584028C8388048B48F699
:10293000FF752C404FF6FF452C400D884FF6FF7673
:1029400006EA05252C434FF6DF752A400D8906EA75
:1029500005152A434D8806EA05152A43444DA84229
:1029600002D0494DA8421DD14FF67F752A404D89AE
:102970004FF6FF7606EA05152A434FF6BF752A4043
:102980008D8806EA05152A434FF6FF352B404FF296
:10299000FF752B408D8906EA85052B43CD8906EA14
:1029A00085052B4383800483CD880587028470BD11
:1029B00070B5002400220023058C4FF6FF663540D9
:1029C0000584028C8388848B4FF68F752C404FF6DC
:1029D000FC752C400D882C434FF6FF552A400D897D
:1029E0004FF6FF7606EA05252A434D8806EA0525B7
:1029F0002A431F4DA84202D0234DA8421DD14FF2B9
:102A0000FF752A404D894FF6FF7606EA05252A43D1
:102A10004FF6FF352A408D8806EA05252A434EF6F3
:102A2000FF752B404DF6FF752B408D8906EA051585
:102A30002B43CD8906EA05152B4383808483CD88FB
:102A40008587028470BD70B5002200230024058CA8
:102A50004EF6FF7635400584038C8488828B48F6D9
:102A6000FF752A404FF6FF452A400D8820E0000000
:102A7000002C01400004004000080040000C004011
:102A8000001000400014004000340140004C0140A0
:102A9000005001400054014000180040001C00405C
:102AA0000020004000400140004401400048014037
:102AB0004FF6FF7606EA05252A434DF6FF752B40B3
:102AC0000D8906EA05352B434D8806EA05352B436B
:102AD000FA4DA84202D0FA4DA84208D14BF6FF7534
:102AE0002C408D894FF6FF7606EA85152C438480AD
:102AF0008283CD88A0F84050038470BD828B4FF252
:102B0000FF331A408283828B4FF6FF7303EA01235F
:102B10001A4382837047F0B50C4615460022002107
:102B20000026078C4EF6FF7C07EA0C070784828B91
:102B3000018C4FF6FF7707EA043640F6FF473A402C
:102B40004FF6FF7707EA05273A434FF6FF7707EA84
:102B500003373A43D94FB8420ED0D94FB8420BD0C1
:102B6000B0F1804F08D0D74FB84205D0D64FB84209
:102B700002D0D64FB84206D14DF6FF77394046F421
:102B80008057394305E047F6FF57394044F48057F2
:102B9000394382830184F0BD828B4FF6F3731A4070
:102BA0008283828B0A4382837047F0B50C461546B8
:102BB000002200210026078C4FF6FF6C07EA0C0765
:102BC0000784828B018C4FF6FF7707EA04264FF6C5
:102BD0000C773A404FF6FF7707EA03172F433A4343
:102BE000B64FB8420ED0B64FB8420BD0B0F1804FBE
:102BF00008D0B44FB84205D0B34FB84202D0B34F5B
:102C0000B84206D14FF6FF57394046F48077394332
:102C100005E04FF2FF57394044F48077394382830F
:102C20000184F0BD028B4FF2FF331A400283028B06
:102C30004FF6FF7303EA01231A4302837047F0B58E
:102C40000C461546002200210026078C4FF6EF7C2B
:102C500007EA0C070784028B018C4FF6FF7707EA1F
:102C6000041640F6FF473A404FF6FF7707EA03376E
:102C70003A434FF6FF7707EA05273A438F4FB842AA
:102C80000ED08F4FB8420BD0B0F1804F08D08D4F8F
:102C9000B84205D08C4FB84202D08C4FB84206D112
:102CA0004FF6DF77394046F01007394305E04FF61D
:102CB0005F77394044F01007394302830184F0BD47
:102CC000028B4FF6F3731A400283028B0A4302838E
:102CD0007047F0B50C46154600220021068C4FF6D1
:102CE000FE773E400684028B018C4FF60C76324014
:102CF0007E1C06EA03162E433243704EB0420ED0BD
:102D00006F4EB0420BD0B0F1804F08D06D4EB04244
:102D100005D06D4EB04202D06C4EB04206D14FF697
:102D2000FD76314044F00106314305E04FF6F5767B
:102D3000314044F00106314302830184F0BD70B597
:102D400005460C465D4885420ED05D4885420BD055
:102D5000B5F1804F08D05B48854205D05A4885427E
:102D600002D05A48854200D100E000BF208850B907
:102D70002389A28861882846FFF7ABFFE1882846AF
:102D8000FFF79EFF25E0208804280AD12389A28826
:102D900061882846FFF753FFE1882846FFF742FF86
:102DA00017E0208808280AD12389A288618828464C
:102DB000FFF7FBFEE1882846FFF7EEFE09E02389D6
:102DC000A28861882846FFF7A6FEE1882846FFF71B
:102DD00095FE70BD2DE9F04105460C460026012701
:102DE000608808B9022600E00026A088012801D1E9
:102DF000022700E001272088A0B92389A2886188E2
:102E00002846FFF766FFE1882846FFF759FF238928
:102E10003A4631462846FFF712FFE1882846FFF779
:102E200001FF13E02389A28861882846FFF707FF86
:102E3000E1882846FFF7F6FE23893A4631462846C0
:102E4000FFF747FFE1882846FFF73AFFBDE8F0812A
:102E50000A884B881A438B881A43CB881A430B89FC
:102E60001A434B891A438B891A43A0F844207047B0
:102E70004FF6FF71818000210180C1804180017285
:102E800070470021018041808180C18001814181A2
:102E90008181C181704700210180418001218180B1
:102EA0000021C18001817047002101804180818023
:102EB000C18001814181818170470000002C014067
:102EC000003401400004004000080040000C0040B5
:102ED00021B1028842F00102028004E002884FF62C
:102EE000FE731A400280704731B1B0F8442042F4BA
:102EF0000042A0F8442005E0B0F84420C2F30E02DE
:102F0000A0F8442070471AB183890B43838102E003
:102F100083898B43838170478182704741EA020332
:102F2000A0F8483070471AB183890B43838102E0CF
:102F300083898B438381704701894FF6F872114072
:102F4000018170470A46002101894FF68F731940AD
:102F500011430181704730B504460D46294620468D
:102F6000FFF7F0FF208940F00700208130BD2DE9F8
:102F7000F04104460D4616461F46602D06D13B46DD
:102F8000012231462046FFF75AFE05E03B4601226A
:102F900031462046FFF79DFE29462046FFF7D2FF27
:102FA000208940F007002081BDE8F08130B50C4653
:102FB00000210189C9B24FF6FF7505EA03251543C3
:102FC00025432943018130BD2DE9F04105460E46D8
:102FD00017469846002443463A4631462846FFF7AE
:102FE000E5FF2C894FF6F870044044F007044FF6D3
:102FF0008F70044044F070042C81BDE8F081F0B57E
:1030000004460D4616461F463B4632462946204694
:10301000FFF7CCFF208940F480402081F0BD01857E
:10302000828270470A46002101884FF68F7319404B
:10303000114301807047F0B50C4615461E4600212D
:10304000002200230189028B038C4FF6F877394068
:1030500021434FF6FC473A4040F201173A434FF6FE
:10306000DD773B404FF6FF7707EA06172F433B43D8
:10307000018102830384F0BD0A460021018B4FF6D3
:103080008F7319401143018370470A460021018B59
:1030900048F6FF7319404FF6FF7303EA0223194302
:1030A000018370470A460021818B4FF68F731940C8
:1030B0001143818370470A460021818B48F6FF73D4
:1030C00019404FF6FF7303EA0223194381837047C7
:1030D00021B1028842F08002028004E002884FF6AB
:1030E0007F731A400280704721B1828842F0040247
:1030F000828004E082884FF6FB731A40828070471A
:1031000021B1828842F00802828004E082884FF672
:10311000F7731A408280704721B1828842F0010221
:10312000828004E082884FF6FE731A4082807047E6
:103130000A460021018B4FF6F773194011430183B2
:1031400070470A460021018B4FF2FF7319404FF67A
:10315000FF7303EA02231943018370470A460021E3
:10316000818B4FF6F77319401143818370470A46EC
:103170000021818B4FF2FF7319404FF6FF7303EA72
:1031800002231943818370470A460021018B4FF6C1
:10319000FB7319401143018370470A460021018BDC
:1031A0004FF6FF3319404FF6FF7303EA022319432A
:1031B000018370470A460021818B4FF6FB7319404B
:1031C0001143818370470A460021818B4FF6FF33FC
:1031D00019404FF6FF7303EA0223194381837047B6
:1031E0000A460021018B4FF67F731940114301837A
:1031F00070470A460021018BC1F30E014FF6FF73A1
:1032000003EA02231943018370470A460021818B98
:103210004FF67F7319401143818370470A4600219E
:10322000818BC1F30E014FF6FF7303EA02231943AA
:10323000818370470A460021018C4FF6FD731940C7
:103240001143018470470A460021018C4FF6F77341
:1032500019401143018470470A460021018C4FF642
:10326000DF7319404FF6FF7303EA02131943018419
:1032700070470A460021018C4FF67F7319404FF6C4
:10328000FF7303EA02131943018470470A460021C1
:10329000018C4FF6FF5319404FF6FF7303EA0223E8
:1032A0001943018470470A460021018C4FF2FF73D5
:1032B00019404FF6FF7303EA022319430184704754
:1032C0000A460021018C4DF6FF7319404FF6FF733B
:1032D00003EA023319430184704730B50023012407
:1032E0008C40A3B2048C9C430484048C02FA01F544
:1032F000ADB22C43048430BD30B5002304248C408F
:10330000A3B2048C9C430484048C02FA01F5ADB290
:103310002C43048430BD70B50346002000241846B9
:10332000183001258D40ACB21D8CA5431D8409B118
:10333000082909D100EB6100056825F070050560DA
:103340000568154305600EE00D1FC5F34E052844C2
:10335000056825F4E045056005684FF6FF7606EA46
:1033600002263543056070BD21B1028842F0020299
:10337000028004E002884FF6FD731A400280704715
:1033800021B1028842F00402028004E002884FF674
:10339000FB731A400280704721B1828842F080029C
:1033A000828004E082884FF67F731A4082807047E3
:1033B00002884FF6F7731A40028002880A4302809F
:1033C000704782884FF68F731A40828082880A4342
:1033D0008280704702894FF6F8731A400281028991
:1033E0000A430281704702894FF67F731A400281B7
:1033F00002890A4302817047818470478185704742
:10340000818670470187704781877047A0F8401018
:10341000704702884FF6FF431A40028002880A4331
:10342000028070470146888E70470146088F7047BA
:103430000146888F70470146B1F840007047014649
:10344000888C70470146088D704702460020138A19
:103450000B400BB1012000E000207047CA430282FC
:10346000704730B50246002000230024158A05EA83
:103470000103958905EA010413B10CB1012000E0B4
:10348000002030BDCA430282704770471CB50C460D
:10349000064B7B4469460090204600F0C6F904467E
:1034A0000020694600F0D4F920461CBDBB03000093
:1034B0000FB4044910B503AA029800F0E5F910BC56
:1034C0005DF814FB1C00002070B50C460546012A6F
:1034D00005D02878800600D5EA69002302E00123A0
:1034E00005E05B1C934202D2E05C0028F9D1A86998
:1034F000E618C01AA861286A18442862284600F015
:1035000006F904E0D5E9012114F8010B9047B44213
:10351000F8D3284600F011F970BD00002DE9F05FE6
:10352000894604464FF0000ADFF874B1FB44C0F846
:1035300020A02046E1688847002874D0252806D0BE
:10354000D4E901219047206A401C2062F1E700265F
:103550005F462046E16888472028054607DB312D75
:1035600005D2781910F8200C08B10643F1E7B0072E
:1035700001D526F00406C4F81CA00027C4F818A042
:103580002A2D09D0284601F08CFA38B304EB8708BD
:10359000303DC8F8185019E059F8041B204604EBD8
:1035A00087029161E1688847012F054618D1E069DB
:1035B000002820DA26F020061DE0D8F8180000EBDD
:1035C000800005EB40003038C8F818002046E1685C
:1035D0008847054601F065FA0028EED1012F0AD090
:1035E0002E2D08D12046E16888477F1C0546022F12
:1035F00046F02006C4DBA069002803DA404246F00A
:103600000106A061F00701D026F010066C2D0BD04A
:10361000682D09D04C2D39D06A2D35D0742D35D078
:103620007A2D33D016E038E0E1682F4620468847EF
:10363000B842054609D16C2F26D04FF48060E1686E
:10364000064320468847054604E06C2F1AD04FF405
:10365000807006430DB3A5F14100192802D820352A
:1036600046F400664A462946204626604E46FCF748
:1036700077FD80B101280BD0F61D26F0070000F180
:10368000080956E74020E4E78020D8E70020D6E785
:1036900006F104094DE7284652E7206ABDE8F09F8D
:1036A000EC33000030B505460B462A4613F8014BB3
:1036B00012F8010B08B1A042F8D01CB1002802D0CA
:1036C0006D1CF1E7284630BD10B5431C02E010F830
:1036D000011B71B18107FAD14FF0013202C88C1A77
:1036E0008C4314EAC211F9D0C01A0A0603D0C01ED6
:1036F00010BDC01A10BD0A0401D0801E10BD090201
:10370000FCD0401E10BD704770477047704770B5C1
:10371000044685690068C10601D5302600E02026F0
:10372000C00707D070BDD4E9012130469047206A18
:10373000401C20626D1EF6D570BD70B504468569CB
:103740000078C00707D170BDD4E90121202090473F
:10375000206A401C20626D1EF6D570BD09684A05BE
:1037600001D540B27047C905FCD500B27047096861
:103770004A0501D5C0B27047C905FCD580B2704773
:103780002DE9F0410646002410687529314616A53A
:1037900010D0FFF7E3FF002802DA404213A507E04C
:1037A00031688A0701D512A502E0490704D511A5A1
:1037B000012401E0FFF7DBFF00210A2206F12407C4
:1037C00009E0B0FBF2FCB0FBF2F302FB1C0030306E
:1037D00078541846491C0028F3D123462A4630461F
:1037E000BDE8F04100F0C5B9000000002D00000068
:1037F0002B0000002000000011680268006A5305D9
:1038000001D508700AE0D30501D5088006E013064B
:1038100003D5C217C1E9000200E00860012070472B
:1038200001694A1C02610878704700B58FB0CDE984
:1038300001310021059105497944CDE90310114674
:103840006846FFF76BFE0FB000BD0000E5FFFFFF0D
:103850000A6802F8010B0A60704710B5436913B19A
:10386000AFF3008001E0FFF72FFE012010BD1278BA
:1038700000F124010A7000224A700122EDE711686C
:103880004FF0FF32E9E70000074B70B50D467B446F
:10389000FFF7CBFF0446284600F0E7FB10B14FF0DE
:1038A000FF3070BD204670BD7FE0FFFF2DE9FF5F58
:1038B00015468A460446DFF8AC80F8440027D8E96C
:1038C00000103E46CDE9001010E03AF816106A46A6
:1038D00002A800F0CEFB411C07D02178890603D551
:1038E000E269391891420DD80744761C2078800689
:1038F00002D5E069B84205DDAE42E6DB3AF81600D3
:103900000028E2D1A069C01BA0612046FFF7FFFE9E
:10391000D8E90010CDE90010002017E03AF818109F
:103920006A4602A800F0A5FBB0F1FF3F81460BD02C
:1039300000250DF1080B05E0D4E901211BF8050075
:1039400090476D1C4D45F7D308F10100B042804609
:10395000E4DB206A384420622046FFF7EEFEBDE833
:10396000FF9F0000723000002DE9F0418046D21D1B
:1039700022F007020025D2E90002F52915A614D08D
:10398000011E72F1000106DA0023D0EB030063EBA5
:10399000020211A608E0D8F800108B0701D50FA687
:1039A00002E0490701D50EA601251146002408F1C1
:1039B000240704E000F098F830323A55641C50EACD
:1039C0000102F7D12B46324621464046BDE8F04180
:1039D00000F0CFB8000000002D0000002B00000018
:1039E0002000000030B4002100F1240408E002F0BF
:1039F0000705D208303542EA4372DB086554491C9A
:103A000052EA0305F3D10468002310A2250708D564
:103A100004F020040C4304D0C46901230CA2641EEA
:103A2000C46130BC00F0A5B810B50446214610684A
:103A3000FFF79DFE02462046BDE810400023D1E777
:103A4000D21D22F00701D1E90023CBE700000000DE
:103A500030000000F0B40D460188090502D5214C64
:103A60007C4402E01F4C7C440E34002100F124060B
:103A700008E002F00F071209E75D42EA03721B0932
:103A80007754491C52EA0307F3D102780023120746
:103A900004D5702D06D009B1022311342246F0BCA2
:103AA00000F067B801231034F8E770B504460D46FE
:103AB00021461068FFF75BFE024629462046BDE816
:103AC00070400023C6E7D21D22F00703D3E900238C
:103AD000C0E70368126843F0200303600823C36152
:103AE0000023B7E7D42E000030B5B0F10A024FEA48
:103AF000900E71F100034EEA817EB0EB0E0061EB97
:103B000091014FEA101E4EEA017E10EB0E0041EBD0
:103B100011114FEA102E4EEA016E10EB0E0041EB30
:103B200011214FEA104E4EEA014E10EB0E0041EB10
:103B30001141401841F100014FEAD00040EA4170C4
:103B40004FEAD10110EB80054FEA810444EA9074FA
:103B500044EB01046D1944EB0404521BA3414FF0E4
:103B6000000348BF0A3200D530BD401C41F10001BE
:103B700030BD2DE9F0470D4699469246044600F1C6
:103B800024080168880604D5E06921F0100121604D
:103B900000E00120A84201DD471B00E00027A169E9
:103BA0007A1902EB0900081AA0612078C00602D435
:103BB0002046FFF7ACFD002608E0D4E901211AF801
:103BC00006009047206A401C761C20624E45F4DBBC
:103BD0002078C0060AD52046FFF799FD06E0D4E913
:103BE000012130209047206A401C2062381EA7F136
:103BF0000107F4DC07E0D4E9012118F8050090473B
:103C0000206A401C2062281EA5F10105F3DC204635
:103C1000FFF793FD2078000602D50220BDE8F0876B
:103C20000120FBE770472DE9FF4F0C461E464FF081
:103C3000FF378BB0D2E90001DDF860800A908A4638
:103C4000C1F30A5505B93D46002108464FF0000072
:103C5000BAF1000F00F4400005DA00EB80004FF4E9
:103C6000400101EA50004FEA9059B9F1010F00DD1F
:103C7000B9460A9850EA4A000ED044F61050A5F210
:103C8000FF3545432F14B8F1000F1ED07542291E91
:103C90001EDDC9F100021CE0B8F1010F4FF0000079
:103CA00001D0302103E0F24305E02154401CB04232
:103CB000FBDB30460022002121540B99C1F808801B
:103CC000C1E900200FB0BDE8F08FBD1B6D1CDEE721
:103CD0004A4600DA694206A800F05CFA06AB93E8AF
:103CE000070003AB83E8070050460A9900F00AFB7F
:103CF0008DE80700A0F500501F3800900398002DB4
:103D000009DD42F21F014A46084403A903906846B0
:103D100000F069FD08E0A0F500504A461F3803A9ED
:103D20000390684600F073FD8DE807000004000C66
:103D300003D04FF0FF30410800E01046B8F1000F0B
:103D400003D00022009215461EE0751E05D4FFF731
:103D5000CBFE303262556D1EF9D5B34601220843C1
:103D600002D000227F1C04E02078302801D10022FC
:103D70007F1E002A099786D01DE0112D07DAFFF774
:103D8000B3FE303262556D1C50EA0102F5D1084392
:103D900002D00098C8B10EE00021681E05E0235C47
:103DA000625C63542254401E491C8142F7DBAB46DF
:103DB000A81B401E0990002004F80B000B98099ADC
:103DC000C0F80880C0E9002B7CE711264FF00008FE
:103DD00059E72DE9F04F88460446D21D22F007012D
:103DE00091B0D1E90001CDE90A0100F046FE02469A
:103DF0000B98C00F01D02D2007E02068810701D566
:103E00002B2002E0202101EAC000032A099001D002
:103E1000072A05DB03464146204600F07BF90BE10B
:103E20002078800601D5E06900E00620B8F1650F32
:103E3000814606D0B8F1660F18D0B8F1670F70D17F
:103E400031E00020B9F1110F009001DB112301E0F6
:103E500009F101030AAA01A90CA8FFF7E4FEDDE9B4
:103E60000C70002609F10105834647E001204B460E
:103E700000904FF000470AAA01A90CA8FFF7D3FE53
:103E8000DDE90DB00C995D46002610B909F101007D
:103E90000D18B9EB050003D4C0F1FF3609F1010597
:103EA000A5EB09002BE0B9F1010F01DA4FF0010990
:103EB0000020B9F1110F0090484601DD112300E008
:103EC00003460AAA01A90CA8FFF7ADFEDDE90C70B4
:103ED0004D4600268346207800070AD4AB4500DA19
:103EE0005D4601A8012D04DD411911F8011C30299E
:103EF00007D04F4502DA17F1040F04DA0120824699
:103F00000FE06D1EEEE7002F02DCED1B3E4403E0E8
:103F1000781CA84200DD7D1CB81B00F1010A4FF09F
:103F200000472078000703D4AA4501DB4FF0FF3A91
:103F30000021B7F1004F0DF143088DF8431024D054
:103F400002202B23002F01DA7F422D230A21021E9B
:103F5000A0F1010000DC5FB197FBF1FC97FBF1F2EF
:103F600001FB1C7C17460CF1300C08F801CDEEE784
:103F7000A8F1010003702188090501D5452100E061
:103F80006521A0F1010800F8011C09980FA9A1EB17
:103F90000807FF1D00B10120411901EBEA70A1697A
:103FA0003844081A401EA0612078C00602D420467A
:103FB000FFF7ADFB099828B1D4E901219047206AA9
:103FC000401C20622078C00622D52046FFF79FFBC8
:103FD0001EE0002E04DBB34502DD01A8805D00E099
:103FE0003020D4E901219047206A401C2062761CD1
:103FF000AAF101005FEA000A0AD100F087F8C06860
:104000000168405CD4E901219047206A401C20628D
:10401000281EA5F10105DCDC07E0D4E9012118F830
:10402000010B9047206A401C2062381EA7F101074F
:10403000F3DC2046FFF781FB032011B043E610B507
:10404000436913B1AFF3008001E0FFF72FFC0120BB
:1040500010BD128800F1240182840022C284012252
:10406000EDE711684FF0FF32E9E7007B00F08000D8
:10407000704770B516460C46054600F03FF80368D9
:1040800093F80101012806D0FF2C0FD8185D68B104
:1040900001202C7070BDD3F807013246214603F28F
:1040A000071303442846BDE8704018474FF0FF301F
:1040B00070BD754600F0E2F8AE460500694653460D
:1040C00020F00700854618B020B5FDF7CDFCBDE80F
:1040D00020404FF000064FF000074FF000084FF06F
:1040E000000B21F00701AC46ACE8C009ACE8C00900
:1040F000ACE8C009ACE8C0098D46704710B500F0C7
:1041000005F8001D10BD00BFD5090000004870472C
:10411000500A00202DE9F0411F460446032601689D
:10412000072A01F4006004DB08B116A505E016A516
:1041300003E008B115A500E015A521F010002060EE
:10414000A069C01EA0610FB1401EA0612046FFF70C
:10415000DEFA4FB1D4E9012138469047206A401C6D
:104160002062C01C206206E0206AFAE7D4E901213F
:1041700015F8010B9047761EF8D22046FFF7DDFABE
:10418000BDE8F0814E414E006E616E00494E460022
:10419000696E66002DE9F047814616468AB03348BD
:1041A00078440DC88DE80D0030487844801C03AC7D
:1041B0000DC884E80D0041F69B300844372190FB80
:1041C000F1F290FBF1F5A5F1800501FB12041B3C17
:1041D00002D56442012000E00020DFF890A0804674
:1041E0000027FA44AAF1BE0A0DE0E00709D03246E2
:1041F000684607EB47010AEB810100F008FB8DE8F8
:10420000070064107F1C002CEFD1184F7F44AC3F97
:1042100018E0E80714D007EB04100DF1180A90E835
:104220000E008AE80E00C068F04201D1981908908B
:10423000324606A903A800F0EAFA03AB83E80700B8
:104240006D10641C002DE4D132466946B8F1000FB0
:1042500003A802D000F0C7FA01E000F0D8FAC9E9DB
:104260000001C9F808200AB0BDE8F087382800002E
:104270000446AFF300802046FBF7D5FF00487047A7
:10428000300A00204FF0013C50F8042B51F8043B59
:104290009A4221D1A2EB0C03934313EACC1317D11A
:1042A00050F8042B51F8043B9A4215D1A2EB0C03B1
:1042B000934313EACC130BD150F8042B51F8043B71
:1042C0009A4209D1A2EB0C03934313EACC13DBD03F
:1042D0004FF00000704700BFD01A01BAB1FA81F167
:1042E00001F0180122FA01F0CB40C1F12001DBB24C
:1042F000C0B2C01A2CFA01F3D11A914311EAC311CA
:10430000E6D170475FEA400C08BF91F0000F4FEA1A
:104310008C234FEAC12243EA51514FEA1C5018BF87
:1043200000F5F0404FEA300018BF41F000415FEA6D
:104330006C5C00F02980BCF1FF3F08BF40F080407A
:104340007047130C06BF12044FF0100C4FF0000C16
:10435000130E04BF12020CF1080C130F04BF12015C
:104360000CF1040C930F04BF92000CF1020CD30F5C
:1043700004BF52000CF1010C11464FF00002A0F1F5
:104380001F00A0EB0C00704711F0004F08BF7047F2
:1043900031F000413FF4D5AF0B0C06BF09044FF0DC
:1043A000100C4FF0000C0B0E04BF09020CF1080CAE
:1043B0000B0F04BF09010CF1040C8B0F04BF890023
:1043C0000CF1020CCB0F04BF49000CF1010CCCF135
:1043D0002003A0EB0C0022FA03F302FA0CF241EAEC
:1043E000030100F10100704720F07F4C80EA0300D8
:1043F00023F07F47ACEB070303F57C5300F000404C
:1044000003F1FF032DE980494FEA154B09B44FEA48
:10441000144325EA0B4E24EA03480FF2042606EB68
:10442000132749083E785FEA320203FB0667C7F5A7
:10443000000707FB06F64FEA54374FEAD64606F167
:10444000020607FB066CCCF1005C4FEA1C472CEA25
:10445000074C07FB06F40CFB06F504EB15464FEA88
:10446000961634BF00204FF000404FEAD13706FBCC
:1044700007FC4FEA1C4C0CFB0BF7D21B03FB0CF7A1
:1044800061EB07010CFB0EF7B0EB074072EB174234
:104490000CFB08F734BFA2EB0742B2EB074261EB1B
:1044A00017414FEA0C444FEA910706FB07FC4FEA1D
:1044B0001C4C0CFB0BF7B0EBC74072EB573203FB05
:1044C0000CF734BFA2EBC742B2EBC74261EB5731E6
:1044D0000CFB0EF7B0EBC70072EB57720CFB08F742
:1044E00034BFA2EBC702B2EBC70261EB5771039F67
:1044F0004FEA816141EA921104EBCC044FEAD137D3
:104500004FEA826206FB07FC42EA90124FEA8060A3
:104510004FEA1C4C0CFB0BF7D21B03FB0CF761EBB7
:1045200007010CFB0EF7B0EB074072EB17420CFBD8
:1045300008F734BFA2EB0742B2EB074261EB174129
:104540004FEA8C554FEA910704EB9C2406FB07FCCD
:104550004FEA1C4C0CFB0BF7B0EBC74072EB573229
:1045600003FB0CF734BFA2EBC742B2EBC74261EBCF
:1045700057310CFB0EF7B0EBC70072EB57720CFB18
:1045800008F734BFA2EBC702B2EBC70261EB577169
:1045900015EB4C254FEA816141EA92114FEA8262A4
:1045A0004FEAD13742EA901206FB07FC44F10004BF
:1045B0004FEA80604FEA1C4C0CFB0BF7D21B03FB4D
:1045C0000CF761EB07010CFB0EF7B0EB074072EB49
:1045D00017420CFB08F734BFA2EB0742B2EB0742CD
:1045E00061EB174115EB1C154FEA813141EA92410D
:1045F0004FEA823242EA90424FEA80304FEA0C762C
:1046000044F1000448EA03434EEA0B484FF0000E21
:10461000B2EB080C71EB030724BF624639464EEB40
:104620000E0E4FF0000B0018524149414BEB0B0BA3
:10463000B2EB080C71EB03077BF1000B24BF624661
:1046400039464EEB0E0E4FF0000B00185241494117
:104650004BEB0B0BB2EB080C71EB03077BF1000B80
:1046600024BF624639464EEB0E0E51EA020718BFD0
:1046700046F0010616EB0E7655F1000254F10001EA
:1046800003D5BDE88901BDE80088BDE88901BDE822
:104690000048B619524141EB0101A3F101037047F3
:1046A00080807F7E7D7C7B7A79787776767574736F
:1046B000727171706F6E6E6D6C6C6B6A6A6968682E
:1046C000676666656464636362616160605F5F5EC4
:1046D0005E5D5D5C5C5B5B5A5A595958585757563A
:1046E000565555555454535352525251515050509F
:1046F0004F4F4F4E4E4D4D4D4C4C4C4B4B4B4A4AF1
:104700004A49494948484847474747464646454534
:10471000454444444443434343424242424141416D
:10472000002B26D4770021D01CB54FEA370703B4FD
:104730004FF010004FF010014FF000000FBCBDE82B
:1047400010400BF1010BBBF1010F08BF5FEA170727
:1047500022BF12F1010211F101014FF0004143F1BA
:10476000000300F0004043EA00007047F9D3570807
:10477000DAE746EA064613F1400F4FEA16461FDD18
:1047800013F1200FDFBF16430A46002120335B429E
:10479000C8D0C3F1200746EA064602FA07F74FEAF7
:1047A000164646EA0706C3F1200722FA03F201FA89
:1047B00007F721FA03F14FF0000342EA0702B1E7DD
:1047C00046EA020646EA06464FEA164646EA010669
:1047D000BCBF46EA0646360C4FF000034FF000021D
:1047E0004FF000019EE72DE9C048934630B491E8B0
:1047F000380007C831EA400C48BF34EA430C03D5FF
:10480000FFF7F2FDFFF78CFFF0BCBDE800882DE953
:10481000C048934630B491E8380007C810F0804F84
:1048200008BF13F0804F03D100F005F8FFF778FFC1
:10483000F0BCBDE8008820F07F4780EA030023F049
:104840007F4C07EB0C03A3F57C5300F00040A3F171
:10485000FE0392F0000F00F0B38095F0000F00F01F
:1048600077802DE901494FEA11404FEA144621EAC9
:10487000004800FB06FC24EA064708FB06F607FB97
:1048800008F800FB07F718EB06484CEB164C4FEA0C
:10489000124B18EB07484FEA15464CEB174022EA3B
:1048A0000B4E0BFB06FC25EA06470EFB06F607FB44
:1048B0000EFE0BFB07F71EEB064E4CEB164C4FF0B3
:1048C00000061EEB074E4CEB174B18EB0B0840F1A4
:1048D000000018EB0E0B58EB000840F100008F1A97
:1048E0004FF000013CBFC943661B14BFB5EB040C7D
:1048F00000213CBFC943F61B4FEA17444EEA8E0E17
:1049000027EA04454FEA1C4704FB07622CEA074CE0
:1049100005FB07F70CFB05F604FB0CFC16EB074642
:1049200042EB174216EB0C4642EB1C421BEB060611
:1049300058EB0202414146EA9E0601D5BDE80189D5
:10494000B619524141EB0101A3F10103BDE8018910
:104950004FEA14454FEA114724EA054621EA074C7D
:1049600005FB07F406FB07F70CFB06F105FB0CFC47
:1049700011EB074144EB17444FEA124711EB0C418E
:1049800044EB1C4422EA074C05FB07F206FB07F741
:104990000CFB06F605FB0CFC16EB074642EB174238
:1049A00016EB0C4642EB1C456A1854F1000148BF57
:1049B0007047B619524141EB0101A3F10103704761
:1049C00095F0000F37D04FEA11424FEA144721EA21
:1049D000024624EA074C02FB07F106FB07F70CFB33
:1049E00006F402FB0CFC14EB074441EB17414FEAC1
:1049F000154714EB0C4441EB1C4125EA074C02FB24
:104A000007F506FB07F70CFB06F602FB0CFC16EBA2
:104A1000074645EB174516EB0C4645EB1C421219B1
:104A200051F1000148BF7047B619524141EB0101F5
:104A3000A3F1010370474FEA14454FEA114724EAF6
:104A4000054621EA074C05FB07F106FB07F70CFBBF
:104A500006F24FF0000605FB0CFC12EB074241EB9F
:104A6000174112EB0C4251EB1C4148BF70479218A2
:104A700041EB0101A3F101037047490050EAC12055
:104A800018BF04204A0D18BF40F0010040F2FF7229
:104A9000B2EB515F08BF40F00200012808BF0520BB
:104AA000704730380A2801D2012070470020704733
:104AB00010B500290AD00878002807D005487844A6
:104AC000FFF7E0FB002801D0002010BD0248784429
:104AD00010BD0000561F00004E1F000010B5002939
:104AE0000AD00878002807D005487844FFF7CAFBA9
:104AF000002801D0002010BD0248784410BD0000FD
:104B0000461F00003E1F0000FFF763B900000000D1
:104B100000000000002F0000000007000700001444
:104B20007F147F1400242A7F2A1200626408132352
:104B300000364955225000000503000000001C22E9
:104B40004100000041221C000014083E0814000827
:104B5000083E0808000000A06000000808080808D7
:104B6000000060600000002010080402003E51496F
:104B7000453E0000427F400000426151494600210D
:104B800041454B31001814127F1000274545453927
:104B9000003C4A4949300001710905030036494982
:104BA000493600064949291E00003636000000003B
:104BB0005636000000081422410000141414141486
:104BC000000041221408000201510906003249592F
:104BD000513E007C1211127C007F49494936003E4B
:104BE00041414122007F4141221C007F4949494106
:104BF000007F09090901003E4149497A007F080800
:104C0000087F0000417F4100002040413F01007FBC
:104C100008142241007F40404040007F020C027F88
:104C2000007F0408107F003E4141413E007F09099A
:104C30000906003E4151215E007F091929460046C0
:104C4000494949310001017F0101003F4040403F97
:104C5000001F2040201F003F4038403F00631408E1
:104C600014630007087008070061514945430000BC
:104C70007F41410000552A552A55000041417F00DF
:104C800000040201020400404040404000000102D4
:104C90000400002054545478007F484444380038BD
:104CA0004444442000384444487F00385454541845
:104CB00000087E0901020018A4A4A47C007F080457
:104CC00004780000447D4000004080847D00007F27
:104CD000102844000000417F4000007C0418047844
:104CE000007C0804047800384444443800FC242440
:104CF00024180018242418FC007C08040408004828
:104D00005454542000043F444020003C4040207C48
:104D1000001C2040201C003C4030403C0044281037
:104D20002844001CA0A0A07C004464544C441414EB
:104D30001414141400000000000000000000000023
:104D40000000FC000000000002000000000C020C4B
:104D5000020000000000000090D0BCD0BC90000316
:104D6000000300001824FE448C0003020702010027
:104D70001824D8B04C80000300010201C038E43888
:104D8000E00001020201020208060000000000002B
:104D900000000000000000F804020000000102040E
:104DA000000204F800000004020100009060F860B6
:104DB00090000000010000002020FC2020000000E6
:104DC00001000000000000000000080600000000D4
:104DD0002020202020000000000000000000000033
:104DE00000000002000000000080601C02000403BC
:104DF00000000000F8040404F800010202020100AF
:104E00000008FC0000000002030200001884442493
:104E1000180003020202020008042424D800010240
:104E20000202010040B088FC800000000003020084
:104E30003C242424C400010202020100F824242C92
:104E4000C0000102020201000C04E41C0400000086
:104E500003000000D8242424D8000102020201002B
:104E600038444444F800000302020100000010002E
:104E70000000000002000000000020000000000010
:104E8000060000000020508804020000000001021B
:104E900090909090900000000000000000020488B4
:104EA00050200002010000001804C4241800000073
:104EB00002000000F804E494F8000102020202007B
:104EC00000E09CF0800002030000030204FC2424A4
:104ED000D800020302020100F80404040C000102DD
:104EE0000202010004FC0404F800020302020100B3
:104EF00004FC24740C0002030202030004FC24746A
:104F00000C00020302000000F0080444CC40000141
:104F10000202010004FC2020FC0402030000030242
:104F20000404FC040400020203020200000404FC66
:104F3000040406040403000004FC24D00C0402034F
:104F40000200030204FC0400000002030202020348
:104F5000FC3CC03CFC0003000300030004FC30C424
:104F6000FC04020302000300F8040404F800010238
:104F70000202010004FC24241800020302000000C5
:104F8000F8848404F80001020207050004FC24648C
:104F90009800020302000302182424448C00030238
:104FA000020201000C04FC040C00000203020000D9
:104FB00004FC0000FC04000102020100047C80E00B
:104FC0001C040000030000001CE03CE01C00000387
:104FD00000030000049C609C040002030003020024
:104FE000041CE01C04000002030200000C84641C8A
:104FF00004000203020203000000FE02020000009F
:1050000007040400000E30C0000000000001020090
:10501000000202FE00000004040700000004020475
:105020000000000000000000000000000000080870
:10503000080808080000020000000000000000004E
:105040000040A0A0C00000010202030204FC2020D6
:10505000C00000030202010000C020206000000127
:105060000202020000C02024FC0000010202030230
:1050700000C0A0A0C0000001020202000020F8242D
:1050800024040002030202000040A0A060200007E8
:105090000A0A0A0404FC2020C000020302000302E2
:1050A0000020E4000000000203020000000020E4F1
:1050B000000008080807000004FC80E0202002032C
:1050C000020003020404FC000000020203020200CA
:1050D000E020E020C00003000300030020E02020C7
:1050E000C00002030200030200C02020C000000133
:1050F0000202010020E02020C000080F0A02010087
:1051000000C02020E0000001020A0F0820E040203B
:1051100020000203020000000060A0A020000002A6
:10512000020203000020F82000000000010202003B
:1051300020E00020E00000010202030220E02080C5
:1051400060200000030100006080E0806000000338
:1051500000030000206080602000020300030200C2
:1051600020E0208060200808070100000020A060E7
:105170002000000203020200000020DE0200000006
:1051800000070400000000FF00000000000F000006
:105190000002DE20000000040700000002010204FB
:1051A00004020000000000000000000000000000F9
:1051B0000000000000000000000000F800000000F7
:1051C000000000333000000000100C06100C060038
:1051D000000000000000000040C07840C07840009F
:1051E000043F04043F040400007088FC0830000001
:1051F000001820FF211E0000F008F000E018000059
:1052000000211C031E211E0000F008887000000011
:105210001E2123241927211010160E000000000063
:105220000000000000000000000000E01804020080
:10523000000000071820400000020418E0000000F1
:105240000040201807000000404080F080404000EF
:105250000202010F01020200000000F00000000045
:105260000101011F01010100000000000000000019
:1052700080B070000000000000000000000000008E
:105280000001010101010101000000000000000017
:1052900000303000000000000000000080601804B2
:1052A000006018060100000000E010080810E0008F
:1052B000000F102020100F00001010F80000000058
:1052C0000020203F2020000000700808088870009F
:1052D000003028242221300000300888884830001F
:1052E0000018202020110E000000C02010F800003F
:1052F00000070424243F240000F8088888080800D8
:105300000019212020110E0000E0108888180000EC
:10531000000F112020110E0000380808C8380800BE
:105320000000003F0000000000708808088870003E
:10533000001C222121221C0000E010080810E000BF
:105340000000312222110F00000000C0C000000048
:10535000000000303000000000000080000000006D
:105360000000806000000000000080402010080065
:10537000000102040810200040404040404040002E
:105380000404040404040400000810204080000009
:105390000020100804020100007048080808F0000E
:1053A0000000003036010000C030C828E810E000DE
:1053B0000718272423140B000000C038E000000069
:1053C000203C23020227382008F8888888700000D3
:1053D000203F202020110E00C030080808083800A7
:1053E000071820202010080008F808080810E0001E
:1053F000203F202020100F0008F88888E8081000BF
:10540000203F20202320180008F88888E808100092
:10541000203F200003000000C030080808380000CA
:1054200007182020221E020008F808000008F808CB
:10543000203F210101213F20000808F80808000052
:105440000020203F2020000000000808F808080085
:10545000C08080807F00000008F888C028180800FD
:10546000203F20012638200008F808000000000036
:10547000203F20202020300008F8F800F8F808002D
:10548000203F003F003F200008F830C00008F80827
:10549000203F200007183F00E01008080810E00037
:1054A0000F10202020100F0008F808080808F0004E
:1054B000203F210101010000E01008080810E00071
:1054C0000F18242438504F0008F888888888700006
:1054D000203F2000030C30200070880808083800A6
:1054E0000038202121221C00180808F8080818009C
:1054F0000000203F2000000008F808000008F8081D
:10550000001F202020201F000878880000C83808CD
:10551000000007380E010000F80800F80008F80045
:10552000033C0700073C03000818688080681808DF
:1055300020302C03032C30200838C800C83808005D
:105540000000203F2000000010080808C8380800AC
:105550002038262120201800000000FE0202020050
:105560000000007F40404000000C30C00000000000
:10557000000000010638C00000020202FE00000028
:10558000004040407F0000000000040202020400CE
:10559000000000000000000000000000000000000B
:1055A00080808080808080800002020400000000F3
:1055B00000000000000000000000808080800000EB
:1055C0000019242222223F2008F8008080000000D9
:1055D000003F112020110E0000000080808000009C
:1055E000000E112020201100000000808088F800AB
:1055F000000E112020103F200000808080800000DD
:10560000001F222222221300008080F08888881840
:105610000020203F2020000000008080808080004B
:10562000006B94949493600008F8008080800000E0
:10563000203F210000203F200080989800000000BB
:105640000020203F202000000000008098980000EB
:1056500000C08080807F000008F80000808080000B
:10566000203F24022D302000000808F80000000030
:105670000020203F202000008080808080808000EB
:10568000203F20003F20003F80800080808000007D
:10569000203F210000203F2000008080808000000B
:1056A000001F202020201F0080800080800000003C
:1056B00080FFA12020110E0000000080808080006B
:1056C000000E112020A0FF8080808000808080005C
:1056D00020203F2120000100000080808080800089
:1056E0000033242424241900008080E080800000FE
:1056F0000000001F2020000080800000008080004B
:10570000001F202020103F208080800000808080AB
:1057100000010E300806010080800080008080803B
:105720000F300C030C300F00008080008080800060
:105730000020312E0E31200080808000008080808B
:1057400080818E701806010000808080808080003B
:105750000021302C2221300000000000807C020259
:1057600000000000003F404000000000FF0000007B
:1057700000000000FF0000000002027C800000002A
:105780000040403F00000000000601010202040446
:105790000000000000000000000000000000000009
:1057A00000000000000000000000000000000000F9
:1057B00000000000000000000000000000000000E9
:1057C00000F0F0F0000000000000000000017F0188
:1057D0000000000000000000001C1C1C0000000075
:1057E00000008060301C8C60301C0C000000000049
:1057F00000000000000000000000000000000000A9
:1058000000000000000000E00000000000E00000D8
:105810000086E69F86868686E69F860000011F0139
:10582000010101011F010100000080C06020F8207B
:10583000E0C00000000003070C18FF70E1810000C9
:105840000000070F10107F100F070000806020601D
:1058500080000000E02000000F3020309F70DC3717
:105860001030C0000000100E0300071810180700C9
:105870000000C02020E0C0000000000080E01F38D1
:10588000E88703C43C040000070F1810100B070D35
:105890001010080000808C4C380000000000000050
:1058A00000000000000000000000000000000000F8
:1058B000000000000000000000000000000080E088
:1058C000300804000000000000FEFF01000000009E
:1058D000000000000000030F182040000004083002
:1058E000E0800000000000000000000001FFFE005A
:1058F00000000000004020180F030000000000001E
:10590000000000000000C0000000000000426666C9
:105910003C18FF183C6666420000000000000300CF
:1059200000000000000000000000800000000000F7
:10593000001010101010FF101010101000000000C8
:105940000000030000000000000000000000000054
:105950000000000000000000000000000000000047
:1059600000808C4C380000000000000000000000A7
:1059700000000000000000000010101010101010B7
:1059800010101000000000000000000000000000E7
:105990000000000000000000000000000000000007
:1059A000000000000000000000001C1C1C000000A3
:1059B000000000000000000000000000E0380C00C3
:1059C0000000000080701C03000000000060380E22
:1059D0000100000000000000000080C06020206086
:1059E000C080000000FEFF010000000001FFFE007B
:1059F0000001070E181010180E070100000080802B
:105A000080C0E000000000000000000000FFFF0078
:105A10000000000000001010101F1F1010100000E8
:105A20000080402020202060C08000000003030090
:105A3000804020381F070000001C1A191818181879
:105A4000181F00000080C020202060C080000000DF
:105A5000000303001010182FE780000000070F104C
:105A6000101010180F070000000000000000C0E038
:105A7000F000000000C0B088868180FFFF808000B9
:105A8000000000000010101F1F1010000000E06058
:105A9000606060606060000000003F100808081847
:105AA000F0E0000000070B101010101C0F030000A6
:105AB000000080C040202020E0C0000000FCFF214A
:105AC0001008080818F0E0000001070C181010106A
:105AD000080F03000000C0E06060606060E06000EC
